:1000000000800020BD010000F9170000BD170000AE
:10001000BD170000BD170000BD170000BD17000090
:10002000BD170000BD170000BD170000F917000044
:10003000F9170000BD170000F9170000AD17000008
:10004000F9170000F9170000F9170000F917000070
:10005000F9170000F9170000F9170000F917000060
:10006000F9170000F9170000F9170000F917000050
:10007000F9170000F9170000F9170000F917000040
:10008000F9170000F9170000F9170000F917000030
:10009000F9170000F9170000F9170000F917000020
:1000A000F9170000F9170000F9170000F917000010
:1000B000F9170000F9170000F9170000F917000000
:1000C000F9170000F9170000F9170000F9170000F0
:1000D000F9170000F9170000F9170000F9170000E0
:1000E000F9170000F9170000F9170000F9170000D0
:1000F000F9170000AD1E0000F917000011260000DE
:10010000F91700008D2B0000F9170000F917000007
:10011000F9170000F9170000F9170000F91700009F
:10012000F9170000F9170000F9170000F91700008F
:10013000F9170000F9170000F9170000F91700007F
:10014000F9170000F9170000F9170000F91700006F
:10015000F9170000F9170000F9170000F91700005F
:10016000F9170000ED080000F9170000F91700006A
:10017000F9170000F9170000F9170000F91700003F
:10018000F9170000F9170000F9170000F91700002F
:10019000F9170000F9170000F9170000F91700001F
:1001A000F9170000F9170000F9170000F91700000F
:1001B000F9170000F9170000F9170000574B4CF22F
:1001C000205210B51A804DF628121A8000BF00BFC9
:1001D00001F016FB524B4FF010621A60514A9A60C0
:1001E000514ADA60A3F53043203B1A6812F480725A
:1001F00004D14E490A604FF4A8521A604C4B1A7849
:10020000110703D51A7842F008021A70494B4A4C7C
:100210004A482A221A704A4A00239918A14203D256
:10022000195899500433F8E7464B474900228B424E
:1002300002D243F8042BFAE74448454900235A58B0
:100240001A500433B3F5DE7FF9D1424B424A802184
:1002500003F8011B9342FBD1404B3C4A1A60404BD0
:100260008A221A70A3F5805324225A70A0221A7091
:100270009A799207FCD59A79D406FCD4394A9379B5
:1002800003F00C03082B374BF9D103221A714022DB
:100290005A719A799006FCD5324A9179314B4906C8
:1002A000FBD5314A314911600221516020221A7078
:1002B0009A7902F00C020C2AFAD12D4B2D4A1A60C1
:1002C0002D4B2E4A1A6000225A60072243F8042C54
:1002D0002B4AC3F80C2D62B600F0C8F9134B1B680B
:1002E000DA0705D5274800F005F9274B274A1A6099
:1002F000274B1B785B0609D5234C244A236893427D
:1003000004D1204800F0F6F80023236002F0DCFE60
:1003100001F07CFA01F05CF9FEE700BF0E20054019
:1003200030800440823F04000100002B14D00340C1
:1003300002D0074000E007408491FF1F183E0000F4
:10034000F087FF1F8491FF1FC894FF1F0082FF1FCB
:100350000000000000E400E05FE400E008ED00E0E1
:100360000050064000400640448004400000030165
:1003700004800440C010050014E000E0FF76010096
:10038000000020201F95FC571CE00340A5C3945A91
:1003900000F00740FFFFFFFFFFFFFFFFFFFFFFFF32
:1003A000FFFFFFFFFFFFFFFFFFFFFFFFFFFFFFFF5D
:1003B000FFFFFFFFFFFFFFFFFFFFFFFFFFFFFFFF4D
:1003C000FFFFFFFFFFFFFFFFFFFFFFFFFFFFFFFF3D
:1003D000FFFFFFFFFFFFFFFFFFFFFFFFFFFFFFFF2D
:1003E000FFFFFFFFFFFFFFFFFFFFFFFFFFFFFFFF1D
:1003F000FFFFFFFFFFFFFFFFFFFFFFFFFFFFFFFF0D
:10040000FFFFFFFFFFFFFFFFFFFFFFFFDEF9FFFF23
:1004100010B5054C237833B9044B13B10448AFF33E
:1004200000800123237010BD8491FF1F0000000095
:10043000183E000008B5064B1BB106480649AFF34D
:1004400000800648036813B1054B03B1984708BD07
:1004500000000000183E00008891FF1F8491FF1FDC
:100460000000000038B54FF47A7000F0E9F81A4D3A
:1004700005232B7000F018FE184C1723237000F092
:1004800013FE00232B70237000F00EFE4FF4FA6071
:1004900000F0D6F8124C23685B68204611492622EA
:1004A0009847204601F084F823685B6820460E498F
:1004B00033229847204601F07BF841F2883000F063
:1004C000BFF823685B682046084907229847204602
:1004D00001F06EF838BD00BF9492FF1F8C92FF1F91
:1004E000AC92FF1F1C3A0000443A0000783A00002A
:1004F000704700BF044B00221A6004490A60044A96
:10050000106010221A60704714D0034004D00340DA
:1005100000D0034021281ED80F4B53F8303093F8F9
:10052000802212F0FF0F08D019B1012283F8802039
:100530007047012283F800217047074B03EBC0008E
:10054000436821B11A6842F003021A6070471A68C2
:1005500022F002021A607047803A000021284AD82F
:10056000254B03EBC0035B68012911D004291DD082
:10057000214A52F83020002082F8800200292FD032
:10058000022931D003291FD040F203121A607047AC
:10059000194A52F83020012182F880124FF4A272D9
:1005A0001A601A6822F020021A607047124A52F844
:1005B0003020012182F880124FF4A2721A601A686A
:1005C00042F020021A6070474FF480721A601A6875
:1005D00042F002021A601A6822F001021A607047A3
:1005E0004FF480721A6070474FF480721A601A6874
:1005F00042F003021A607047803A000072B60C4B5A
:100600001B680C4A12680C49096862B611F0806FC9
:1006100002D0322B88BF0132C3F5BB33FF33074909
:10062000A1FB03039B094FF47A7000FB0230704773
:1006300018E000E0A091FF1F04ED00E0ABAAAAAA19
:1006400038B50546FFF7DAFF044625B938BD013D48
:100650000AD004F57A74FFF7D1FF001BB0F57A7F5A
:10066000F5D200F0F7FFF6E738BD00BF10B5264B16
:100670004FF400021A604FF080721A604FF000725F
:100680001A604FF080621A604FF000621A6000201A
:100690001E4B18604BF6FF710433196028231C4A67
:1006A0001360083213600832136008321360083296
:1006B0001360083213600832136008321360092295
:1006C000144C226004F5805404342060043421600A
:1006D0000434236008342360143C226004F5FE24B3
:1006E000043420600C4801600C490B6008310B6039
:1006F0000B4B1A6000F0D0FF4FF4C870FFF7A0FF5B
:1007000000F078FC10BD00BF08E100E00480034069
:100710000C8003400080034008800B400C800B409D
:1007200000800B4030B40E4B1B7843F002020D4C9E
:1007300004EBC20460600C48007800280CBF8824D9
:10074000C82444EA0141074D45F8321080F0010009
:10075000054A107083F00103014A137030BC7047E2
:100760000C92FF1F0080FF1F8592FF1F10B4431ED5
:10077000032B11D872B60A4A52F8230050B14268CE
:10078000074941F82320074A32F813400188611ACB
:1007900022F8131062B600E000205DF8044B7047A9
:1007A000FC91FF1FBC94FF1F013803280DD872B6BF
:1007B000074B53F820302BB1002001305B68002B31
:1007C000FBD100E0002062B670470020704700BFF8
:1007D0005092FF1F38B572B601231B491B4C5A18A3
:1007E00012F8012C12F0080F24D09A0054F832505D
:1007F0006DB9164B03EBC20108304860144943F849
:100800003210144B1A78013A1A7062B638BD42F0B1
:10081000010254F832506DB90C4B03EBC2010830A1
:1008200048600D4943F832100A4B1A78013A1A70A1
:1008300062B638BD0133052BD1D162B60022054B1B
:100840001A7000F005FD38BD283C00000080FF1F35
:10085000880040007A92FF1FC800400010B4431E79
:10086000032B37D8400140F010001C4A104472B6E8
:100870001B4AD25C032A09D8DFE802F019021B05E3
:100880000830022216E00830042213E0154A52F81C
:1008900023201AB9134A42F8231003E0124A52F8EF
:1008A00023205160104A42F8231062B612E003225E
:1008B00000E005220A4CE25401F10803436000F015
:1008C0000803002B0CBF8823C8230A8843EA02438D
:1008D000036062B65DF8044B704700BF0080FF1FE5
:1008E000B891FF1F5092FF1F6092FF1F2DE9F84F34
:1008F000A84CDFF8F092DFF8F0A2DFF8F0B225782C
:10090000EDB215F0040F1DD0A34B1B7813F0FF0FB1
:1009100016D0A24B1B7803F0FF022BB1531EDBB2A3
:100920009E4A137003B900BE9D4B1B7803F0FF0273
:1009300033B1531EDBB29A4A13700BB900F006FEB6
:100940000423237015F0080F00F0E88299F80030B6
:10095000DBB21D0940F02582924D9E0805EBC603CF
:100960005A6855F83630C3F38303013B0C2B00F271
:100970001482DFE813F0BB01BB0112021202120263
:10098000120212021202EC011202120212020D00F5
:10099000854913680B6052684A60844A45F83620DE
:1009A000002283490A607F490A618A610121814AE4
:1009B00011709BB240F28162934218D8B3F5D06FA8
:1009C00029D2B3F5817F00F0178106D8802B00F083
:1009D000C380822B00F0C68056E140F2023293427F
:1009E00000F01F81B3F5A06F00F052814CE1B3F528
:1009F000106F16D004D8B3F5086F00F0A78043E15C
:100A000040F62112934200F06D8140F6212293427C
:100A100000F03E8138E1684B5D68002D40F01681A2
:100A20002EE1614B9A785C4B1A705E4D05F18006A1
:100A30002B6A13F0800F03D0686A083800F008FCB6
:100A40000835B542F4D1DFF8A881002637465B4A65
:100A5000B05828B1456800F0FBFB0DB12846F9E716
:100A6000002356497350564AB350564BF05828B19C
:100A7000456800F0EDFB0DB12846F9E70023514928
:100A80007350514AB35028F8023F504BFB5C023B75
:100A9000032B0AD8DFE803F00206020600224B4BC4
:100AA000DA5502E00122494BDA5501370436102E9F
:100AB000CDD10022464B1A700125464FDFF8348114
:100AC000384E05EB080313F8013C07F8043B13F01C
:100AD000080F2DD000F09CFB48B1A90006EB451291
:100AE00000F1080353603C4A46F8312007E0AB00B0
:100AF000002246F83320364B1A7801321A7000F083
:100B000087FB58B1AB0043F0010306EBC30100F1D2
:100B100008024A60254A46F8332009E0AB0043F05A
:100B20000103002246F83320294B1A7801321A704B
:100B3000AA0042F00201002346F8313042F00302DD
:100B400046F8323001355F45BBD128E2124B1B78A5
:100B5000224D2B700127A0E0204D00232B706B70DD
:100B600002279AE0104B9B88042B03D90F221C4BC1
:100B70001A70B7E0194A002111705170184A12F822
:100B8000233013F0020F00F08680144D01232B70E8
:100B9000022782E0802007408492FF1F0D92FF1FF2
:100BA000A892FF1F0080FF1F7092FF1FC800400027
:100BB000A491FF1F8592FF1F2C3C0000FC91FF1F9A
:100BC000A891FF1F5092FF1F6092FF1FB891FF1F57
:100BD0007A92FF1FC4200740880040007C92FF1FCC
:100BE000C02007409020074094200740D4200740B1
:100BF000BA94FF1F283C00009E4B9B8803F07F03A4
:100C0000042B02DC9B4A52881AB10F229A4B1A70AD
:100C100068E0994A12F8231021F0020102F823102B
:100C2000BDE1944B9B8803F07F03042B02DC914AC7
:100C300052881AB10F22904B1A7053E08E4A12F864
:100C4000231041F0020102F82310A8E1894B5E88CD
:100C50009F888A4BA3F10C02114633F80C0CB0426A
:100C600009D133F80A0CB84205D1360A032E0CBF5D
:100C70002F78178911E00D690C330C32002DEBD160
:100C80000F227D4B1A702DE00F227B4B1A7029E04A
:100C900000273D4601E00227794D764BDB889F42D5
:100CA00028BF1F46402F34BF3E46402628463146C7
:100CB000FFF738FD3544BF1B03D13F2E00F274818E
:100CC00010E0402F34BF3E46402628463146FFF70D
:100CD00029FD3544BF1B01D13F2E03D9694B1D604F
:100CE000694B1F8001238AF8003056E0614B1B6876
:100CF00066498B420CD15F4B5B68B3F5803F22D1D4
:100D00001278634B1A7000200146FFF70BFD1AE0C2
:100D100060498B4217D1574B59685F4B994212D1AA
:100D20001378A92B0FD15378452B0CD19378C22B74
:100D300009D1D3786B2B06D10522584B1A700020AD
:100D40000146FFF7EFFC564B45F8363025E04D4B9A
:100D50001E68BEB14C4FB7F80080B8F1400F34BFE9
:100D60004546402530462946FFF7DCFCC5EB080325
:100D70009BB23B800BB9402D01D1354400E00025EA
:100D8000404B1D603B4B1B88B3F5A06F05D1394B21
:100D900000225A709B7843490B7001238AF8003077
:100DA000B9E0414E9F0806EBC708D8F80420A2F12D
:100DB0000800013DEDB213F0080F47D000F048FAEB
:100DC0003A4B53F825304BB35A68384941F825203F
:100DD00003F10802C8F80420354A525D032A12D8EC
:100DE000DFE802F002060A0E0321314A51550AE0FB
:100DF00002212F4A515506E005212D4A515502E0A6
:100E000004212B4A515518F0080F0CBF8822C82224
:100E10001B8842EA034346F837307CE0244B5B5D95
:100E2000032B0BD8DFE803F0777702060022204B74
:100E30005A5570E001221E4B5A556CE018F0080F0D
:100E40000CBF022203221A4B5A5564E056F8373081
:100E50001B0C22F8083C002B55D0002322F8063C3E
:100E600042F8043C134B53F825302BBB114B43F88D
:100E7000250025E07092FF1FC0200740383C00008D
:100E80007C92FF1FA491FF1F7892FF1F210900028F
:100E90009992FF1F21090003010004000D92FF1F1A
:100EA000C8004000982007400080FF1F5092FF1F9D
:100EB000B891FF1FFC91FF1F3F4B53F8253058603E
:100EC0003D4B43F825003D4B33F8151032F8082C04
:100ED0000A4423F8152000F09BF960B100F10803E3
:100EE000C8F8043018F0080F354B364A08BF1346CF
:100EF00046F837300FE0002346F83730324B1A7887
:100F000001321A7007E018F0080F2D4B2D4A08BF68
:100F1000134646F8373008232370F0E415F0010F2C
:100F200022D02A4902230B700022294B1A70294B28
:100F300024481860284C5C6098602848D8601A6182
:100F40009A610D20264B1870FF232648037008383D
:100F5000037018300270244A13709F22234B1A70BA
:100F600001230B70BDE8F88F15F0800F05D00D221E
:100F70001B4B1A708022403B1A7015F0020F06D0EE
:100F8000184B1A78D2B21A700222083B1A7015F068
:100F9000100F0ED01022164B1A70BDE8F88F0020EB
:100FA0000146FFF7BFFB9DE628460021FFF7BAFB8D
:100FB00098E6BDE8F88F00BFA891FF1FBC94FF1F03
:100FC000C8004000880040007A92FF1F942007402C
:100FD0000C92FF1F0080FF1FBC91FF1F1092FF1F8C
:100FE000C0200740882007408C200740842007400D
:100FF0008020074008B501F03DFE00231B491A463A
:101000005A50C81842600833882BF9D1184B1A6817
:1010100042F480221A60154BC3F30721154A117060
:10102000C3F30741143211701B0E04321370FF23F7
:10103000343A137008321370783A137001238432F3
:10104000137000216C3211707C3A137070220A4BBD
:101050001A704FF40072A3F241331A60102203F1A8
:10106000C04303F5C8231A7008BD00BF0080FF1FEE
:10107000348004409C20074049E400E01F2806D843
:101080000A280BD00B2814BF00202B2070477F2884
:1010900006D8044B184410F8200C704728207047DD
:1010A00000207047C83B0000F8B51E4B1B7813F0BA
:1010B000FF0F30D047F2694403251B4E194F2846D5
:1010C000FFF772FB032803D800F0A2F8014680B9AD
:1010D000013C01D033782BB10122134B1A704FF031
:1010E000FF30F8BD00F0B6FA3B7813F0FF0FE6D101
:1010F00014E00E4B1B780372002444720C4B1868EA
:10110000C1F80A009B88CB8108230B800320FFF7DE
:10111000A5FB2046F8BD4FF0FF30F8BD4FF0FF3083
:10112000F8BD00BF8492FF1F9892FF1F9492FF1F8B
:101130008C92FF1F08B50B4B19700B4B18700022D7
:101140005A709A70DA701A715A71FFF7ADFF38B998
:101150000023044A1370044A1370FFF7A5FF08BD6B
:1011600008BD00BF9492FF1F8C92FF1F08B5FFF7C8
:1011700085FF50B100F04002D2B2002A00F03F00DB
:1011800014BF02210021FFF7D5FF08BD08B510F0FC
:10119000800F05D100221C4B1A60FFF7E7FF08BD46
:1011A000BF2819D800F03F00174B1B68012B08D14E
:1011B0000022154B1A60154B1B881843FFF7D6FF0A
:1011C00008BD022B1FD1114B1A8842EA80101880EB
:1011D00001220D4B1A6008BDDF2808D800F01F005F
:1011E00080010A4B18800122074B1A6008BDEF28C6
:1011F00006D80003054B18800222034B1A6008BD75
:10120000FF22014B1A6008BD8892FF1F9692FF1FB4
:1012100072B60D4B1A68B2FA82F30D2B02D962B680
:10122000002070474FF00041D94022EA01020649F0
:101230000A6062B6054903EBC303DB00C81800224D
:10124000CA504260704700BFF087FF1F0084FF1F35
:1012500008B50F4BC31A0F4AA2FB03131B090D2B32
:1012600014D80D4A12783AB10C4A127812F0FF0FD6
:1012700002D0FFF7AFFA08BD72B6094A4FF000413D
:1012800021FA03F311681943116062B608BD00BF6B
:101290000084FF1F398EE3387A92FF1F8492FF1F6C
:1012A000F087FF1FF8B5194B1B7813F0FF0F24D000
:1012B000174C0227154E206820B93846FFF756FA1A
:1012C0002060E8B14388C218157A6DB101330288F5
:1012D000934206D3FFF7BCFF00220D4B1A6028464D
:1012E000F8BD43802846F8BDFFF7B2FF0023236016
:1012F000337813F0FF0FDED105E04FF0FF30F8BD7B
:101300004FF0FF30F8BD4FF0FF30F8BD8492FF1F63
:10131000A492FF1F70B5134B1B7813F0FF0F16D06C
:10132000114C02260F4D206820B93046FFF71EFAF7
:10133000206078B1438803441B7A73B9FFF788FFB4
:10134000002323602B7813F0FF0FECD107E04FF060
:10135000FF3070BD4FF0FF3070BD184670BD4FF0CC
:10136000FF3070BD8492FF1FA492FF1F38B5194B48
:101370001B6853B9184B1B7813F0FF0F24D00220C1
:10138000FFF7F4F9134B186000B3124B1868058887
:1013900043889D4212DDC218127A7AB103F1080225
:1013A0000244ED1A012303E012F8011F013319B1C1
:1013B0001C46AB42F8D100E023464BB9FFF748FF8B
:1013C0000020044B186038BD002038BD002038BD17
:1013D000204638BDA492FF1F8492FF1F2DE9F047DD
:1013E000044601223B4B1A700F4600296DD0DFF8EE
:1013F000F090DFF8F0A01E46DFF8DC80D9F800306E
:10140000A3BB9AF8003013F0FF0F06D10022314B36
:101410001A704FF0FF30BDE8F08744F2D955012033
:10142000FFF7C2F9052806D801233370FFF7F0FE55
:10143000C9F80000D0B9013D02D098F800304BB196
:101440000122254B1A700022224B1A704FF0FF30F8
:10145000BDE8F0870023337000F0FCF801233370FF
:101460009AF8003013F0FF0FD9D1CFE7002388F8A6
:101470000030D9F800104A88C2F14005AF4238BFA9
:101480003D4602F108030B442A444A807F1B3DB1CC
:10149000254414F8012B03F8012BAC42F9D100E0EC
:1014A00025464B883F2B03D805220C4B1A7009E0C8
:1014B00040230B800024094B1C700120FFF7CEF95C
:1014C000C9F800400FB12C4698E70020014B187076
:1014D000BDE8F0879A92FF1FA092FF1FA892FF1FFE
:1014E0009C92FF1F8492FF1F00B583B002AB03F8EC
:1014F000010D18460121FFF771FF03B05DF804FBF1
:1015000008B50F4B1B7813F0FF0F17D00D4B196860
:10151000A1B14A8892B100200B4B187013463F2AA4
:1015200004DCCA1810720133402BFAD140230B801F
:101530000120FFF793F90022024B1A6008BD00BF9B
:101540008492FF1F9C92FF1FA892FF1F08B50C4BAF
:101550001B7813F0FF0F12D10A4B19684B883F2BF1
:1015600005DC0020CA1810720133402BFAD1402349
:101570000B800120FFF772F90022024B1A6008BDB0
:101580009A92FF1F9C92FF1FF8B506460F4614461D
:1015900052B1002533681B68304617F8011B984785
:1015A0000544013CF6D100E000252846F8BD00BF07
:1015B00000B583B0054B1B88ADF8043003685B6849
:1015C00001A90222984703B05DF804FB903B00009C
:1015D00008B5FEF747FFFEF78BFF00F03BF8FAE790
:1015E00008B5FFF7C3FE08BD08B5FFF75BFE08BDF1
:1015F00008B5FFF78FFE08BD08B5FFF781FF08BDEE
:1016000008B50846FFF770FF08BD00BF08B50846DB
:101610001146FFF7E3FE08BD08B50846FFF7B6FD23
:10162000012008BD704700BF064B00221A71064911
:101630001960064B1A714FF47A7199601A73044A53
:101640001A607047AC92FF1FC03B0000B492FF1FAE
:10165000A03B000008B50F4B1B78CBB901220D4B06
:101660001A70FFF783FE08B1FFF7DCFF00F094FB70
:1016700008B101F0D5FB00F041FF08B101F072FCA8
:1016800001F00EFA08B101F00FFD0022014B1A70B3
:1016900008BD00BFC492FF1F60223A4B1A70E122BE
:1016A00001331A70384B1B78082B10D1012203F13B
:1016B000804303F56C331A60132334490B6001F542
:1016C000FF2101F2FC710A60314A13601FE00A2B0E
:1016D0000DD139222F4B1A6013232C490B6001F5D1
:1016E000FF2101F2FC710A60294A13600FE00C2B04
:1016F0000CBF35223D22274B1A60122323490B6071
:1017000001F5FF2101F2FC710A60214A1360224BAE
:101710001B7833B10123214A136002F500221360C4
:1017200005E000231D4A136002F5002213601C4BE4
:101730001B78012B06D880231A4A136002F5002279
:1017400013601AE0042B06D88423164A136002F5AE
:101750000022136011E0082B06D88523114A13607C
:1017600002F50022136008E0102B94BF8623872324
:101770000C4A136002F50022136001220A4B1A7012
:10178000704700BF00400740F487FF1F0CB00340C4
:101790000CB00B4008B00340C692FF1F20B00340BE
:1017A000F587FF1F24B00340C592FF1F024B1A6844
:1017B00001321A60704700BFA091FF1F08B50D4CA1
:1017C000236813F4802F01D0FFF790F8236813F4F7
:1017D000806F01D000F06AFB236813F4006F01D022
:1017E00000F016FF236813F4805FE9D001F0CEF912
:1017F000E6E700BF3480044008B5FFF7DFFF00BF15
:101800001022014B1A80704700200540704700BF2E
:10181000024A13681844106018467047F887FF1F83
:10182000EFF31383ABB9EFF31083ABB9EFF3058399
:1018300023B10F2B05D9094A985C03E04FF480705F
:1018400000E00020EFF311833BB1834238BF18461C
:1018500070474FF0FF30704700207047F0E300E022
:1018600030B40023B0FBF2F402FB14041D46092C33
:1018700094BF30343734E4B2CC54B0FBF2F008B14A
:101880000133EFE70D4400226A70934207DD885C64
:10189000CC5C8C54C8540132013B9A42F7DB0846B9
:1018A00030BC7047254B1A6842F480621A600023EE
:1018B000234A1370234A1370234A1370234A137068
:1018C000234A1370234B1B7813B1152B05D008E066
:1018D00040F21332204B1A6003E040F213321F4BE8
:1018E0001A601F4B1B78012B02D0052B05D008E096
:1018F0004FF451721B4B1A6003E04FF451721A4BB4
:101900001A60C0F34432194B1A70C0F347125A7070
:1019100000F01F00987204229A700221D9745A753F
:1019200088221A743C22DA704022114B1A704FF44C
:101930000052A3F229331A60704700BF348004407C
:101940005493FF1FCD92FF1F5C93FF1F5593FF1F02
:10195000CC92FF1F1093FF1F40A0044018C004400A
:10196000FC87FF1F44A004401CC0044000A00640A8
:101970002DE400E0164B9B7803F0EC0300F003022B
:10198000134310F0040F18BF43F01003104A937074
:1019900000F00F03042B04D11346927942F0400269
:1019A0009A710B4B5A7902F0EF0210F0100F18BF2A
:1019B00042F01002064B5A719B7903F0EF0310F0CE
:1019C000200F18BF43F01003014A9371704700BF06
:1019D00000A0064010B5144B1B6813F4806F21D093
:1019E000124B1B7813F0FF0F06D0104CFFF732FE9E
:1019F000237813F0FF0FF9D14FF400520C4B1A600B
:101A000000230C4AD37040F203120B490A600431E0
:101A10000A600A4A13700A4A13700A4B1B680BB11A
:101A200001221A7010BD00BF34800440CC92FF1F09
:101A300084E100E000A0064040A004405493FF1F52
:101A4000CD92FF1FC892FF1F10B50446094A1378B4
:101A500013F0FF0FFBD120460121FEF77FFD20464A
:101A60000021FEF757FD044B53F83420034B1A6056
:101A700010BD00BFCC92FF1F803A00005893FF1F9B
:101A800010B40C4609B140F08000184B1B78984206
:101A900028D0174A126812F4806F21D003F07F0318
:101AA000012B02D0052B04D006E00022114B1A6056
:101AB00002E00022104B1A60002C0CBF442260226E
:101AC00000F07F03012B02D0052B05D008E042F483
:101AD0004072084B1A6003E042F44072064B1A60F1
:101AE000024B18705DF8044B704700BFFC87FF1F66
:101AF0003480044044A004401CC00440114B1B78B7
:101B000098421ED0104A126812F4806F17D013B199
:101B1000152B04D006E000220C4B1A6002E00022D4
:101B20000B4B1A6010B1152805D008E040F21332B3
:101B3000064B1A6003E040F21332054B1A60014B6A
:101B4000187070471093FF1F3480044040A0044079
:101B500018C0044010B50D4B1B6813F4806F12D0F1
:101B600021280CD80A4C0B4B53F83030236001214C
:101B7000FEF7F4FC236800221A70012010BD00203B
:101B8000034B186010BD002010BD00BF348004401E
:101B9000C892FF1F803A0000114B1B6813F4806F3E
:101BA0001BD0122804D140F202320E4B1A600DE015
:101BB000142804D140F202320B4B1A6006E00B4BA2
:101BC0005A7B02F0FE025A7300207047074B5A7B83
:101BD00042F001025A73012070470020704700BF95
:101BE000348004400CA0044014C0044000A006400F
:101BF0002DE9F04107461F4B1B6813F4806F37D067
:101C00001D4B1B680BB101221A701C4B1C78013450
:101C1000402C28BF00241A4D1A4EDFF86C8017E0C4
:101C2000FFF7FEFD40280FDC337913F0800F0FD053
:101C30002B780133402B28BF002318F80320D2B2A1
:101C4000F271DBB22B7003E0FF2801DDFFF702FD2C
:101C50002B78DBB29C42E3D0FFB20B4B1F55012225
:101C60000A4B1A70E4B2054B1C70BC22054BDA70AB
:101C7000BDE8F081348004405893FF1F5C93FF1F40
:101C80005593FF1F00A00640D092FF1FCC92FF1F6C
:101C90002DE9F84F0746284B1B6813F4806F49D095
:101CA000264B1B680BB101221A7007EB010B5F4535
:101CB0003DD2DFF89890224EDFF88C80DFF890A0BC
:101CC00099F800400134402C28BF00243578EDB24B
:101CD000A54220D1BC2388F80330FFF7A1FD40289E
:101CE00011DC98F8043013F0800F10D033780133F2
:101CF000402B28BF00231AF80320D2B288F807200F
:101D0000DBB2337003E0FF2801DDFFF7A3FC33787B
:101D1000DBB29D42E1D017F8013B0AF80430012202
:101D2000084B1A70E4B289F800405F45C8D1BC2264
:101D3000054BDA70BDE8F88F348004405893FF1FDC
:101D40005593FF1FCC92FF1F00A006405C93FF1F1E
:101D5000D092FF1F10B5064B1B7813F0FF0F06D073
:101D6000034CFFF777FC237813F0FF0FF9D110BD78
:101D7000CC92FF1F064B1B78DBB2064A1278D2B218
:101D800093422CBF3F3202F1FF32D01A704700BF9E
:101D90005C93FF1F5593FF1F054B1878C0B2054B8E
:101DA0001B78DBB2984238BF4030C01A704700BF82
:101DB0005493FF1FCD92FF1F10B4184B1A78D2B264
:101DC000174B1B78DBB29A4218D001333F2B18D83F
:101DD0001449C85CC0B2DCB211490C7012490968E0
:101DE000C9B19A4203D300E00023D31A01E0403284
:101DF000D31A1A2B0FDC00230B700CE04FF0FF30CE
:101E000009E0084B1878C0B20021054B1970064B49
:101E100019680029E8D15DF8044B70475493FF1FFF
:101E2000CD92FF1F1493FF1FC892FF1F094B1A7812
:101E3000D2B2094B1B78DBB29A4207D00133402B58
:101E400028BF0023054AD05CC0B270474FF0FF3076
:101E5000704700BF5493FF1FCD92FF1F1493FF1FC5
:101E60000D4B1B6813F4806F14D00C4BDA7802F022
:101E7000CB02DA7040225A74DA7842F03402DA7017
:101E8000074B1A78D2B2074B1A70074B1B680BB17D
:101E900000221A70704700BF3480044000A0064042
:101EA000CD92FF1F5493FF1FC892FF1F70B43D4B8C
:101EB0001B7913F0300F33D072B63A4B9B7D03F091
:101EC000FF022BB9374BDA7940225A7462B627E009
:101ED00062B6354B1978C9B2344B1C78E4B2314D37
:101EE000334EEB79D8B24B1C402B28BF0023A342C2
:101EF0001CBFF0541946531E13F0FF02F1D1CAB2B1
:101F0000294B1A702B4B1B6853B1A1422EBFC4EB57
:101F10000101C4F1400409192729C4BF01221A7024
:101F2000204BDA78D2B212F0800F27D01B7913F051
:101F3000800F23D0204B1C78E4B2204B1B78DBB2FF
:101F40009C4210D017491E4D01E0A3420BD0013333
:101F5000402B28BF00230879E85CC0B2C871087D17
:101F6000C0B20728F1D9DBB214490B700D4B1B79B5
:101F700013F0800F02D07C210A4BD97012F0400F71
:101F80000ED0084B1B7913F0400F09D000220D4BE7
:101F90001A700D4B1B6803B11A703C22014BDA70AA
:101FA00070BC704700A006405493FF1FCD92FF1FE6
:101FB0001493FF1FC892FF1F5C93FF1F5593FF1FD1
:101FC000D092FF1FCC92FF1F5893FF1F254B1A681A
:101FD00042F400621A600023234A1370234A1370EC
:101FE000234A1370234A1370234A1370234B1B7820
:101FF000092B02D01A2B05D008E040F21332204BF7
:102000001A6003E040F213321E4B1A601E4B1B781D
:102010000A2B02D01F2B05D008E04FF451721B4B46
:102020001A6003E04FF45172194B1A60C0F3443246
:10203000184B1A70C0F347125A7000F01F009872C4
:1020400004229A700221D9745A7588221A743C228B
:10205000DA704022104B1A704FF40042A3F22B3377
:102060001A60704734800440D093FF1F6593FF1FB0
:10207000D893FF1FD193FF1F6493FF1FFD87FF1F9E
:102080000CB0044004D00440FE87FF1F10B0044091
:1020900000D0044000B006402FE400E0164B9B78CF
:1020A00003F0EC0300F00302134310F0040F18BF19
:1020B00043F01003104A937000F00F03042B04D177
:1020C0001346927942F040029A710B4B5A7902F012
:1020D000EF0210F0100F18BF42F01002064B5A71B9
:1020E0009B7903F0EF0310F0200F18BF43F01003AB
:1020F000014A9371704700BF00B0064010B5224BF3
:102100001B6813F4006F3ED0204B1B7813F0FF0FB9
:1021100006D01E4CFFF79EFA237813F0FF0FF9D17B
:102120004FF400421A4B1A6000221A4BDA701A4B15
:102130001B78092B02D01A2B05D008E040F20312BD
:10214000164B1A6003E040F20312154B1A60154B50
:102150001B7803F07F030A2B02D01F2B05D008E069
:1021600040F20312104B1A6003E040F203120F4BCF
:102170001A6000230E4A13700E4A13700E4B1B6830
:102180000BB101221A7010BD348004406493FF1F0C
:1021900084E100E000B00640FD87FF1F0CB0044062
:1021A00004D00440FE87FF1F10B0044000D004405C
:1021B000D093FF1F6593FF1F6093FF1F10B5044668
:1021C000094A137813F0FF0FFBD120460121FEF7D7
:1021D000C5F920460021FEF79DF9044B53F8342041
:1021E000034B1A6010BD00BF6493FF1F803A0000CC
:1021F000D493FF1F10B40C4609B140F08000184B77
:102200001B78984228D0174A126812F4006F21D028
:1022100003F07F030A2B02D01F2B04D006E000221C
:10222000114B1A6002E00022104B1A60002C0CBF08
:102230004422602200F07F030A2B02D01F2B05D01E
:1022400008E042F44072084B1A6003E042F4407226
:10225000064B1A60024B18705DF8044B704700BFC4
:10226000FE87FF1F3480044010B0044000D00440BB
:10227000124B1B78984220D0114A126812F4006F5A
:1022800019D0092B02D01A2B04D006E000220D4BE6
:102290001A6002E000220C4B1A60092802D01A28AA
:1022A00005D008E040F21332064B1A6003E040F21A
:1022B0001332054B1A60014B18707047FD87FF1FE2
:1022C000348004400CB0044004D0044010B50D4BE1
:1022D0001B6813F4006F12D021280CD80A4C0B4B4A
:1022E00053F8303023600121FEF738F923680022CB
:1022F0001A70012010BD0020034B186010BD002093
:1023000010BD00BF348004406093FF1F803A00007E
:102310000D4B1B6813F4006F13D017280AD140F23D
:1023200002320A4B1A600A4B5A7B42F001025A737E
:1023300001207047064B5A7B02F0FE025A730020C0
:1023400070470020704700BF3480044008B004404C
:1023500000B006402DE9F04107461F4B1B6813F4FF
:10236000006F37D01D4B1B680BB101221A701C4B3C
:102370001C780134282C28BF00241A4D1A4EDFF88F
:102380006C8017E0FFF74CFA40280FDC337913F02C
:10239000800F0FD02B780133282B28BF002318F88B
:1023A0000320D2B2F271DBB22B7003E0FF2801DD13
:1023B000FFF750F92B78DBB29C42E3D0FFB20B4B16
:1023C0001F5501220A4B1A70E4B2054B1C70BC2247
:1023D000054BDA70BDE8F08134800440D493FF1FD0
:1023E000D893FF1FD193FF1F00B006406893FF1FD3
:1023F0006493FF1F2DE9F84F0746284B1B6813F421
:10240000006F49D0264B1B680BB101221A7007EBF5
:10241000010B5F453DD2DFF89890224EDFF88C80AB
:10242000DFF890A099F800400134282C28BF002440
:102430003578EDB2A54220D1BC2388F80330FFF7F0
:10244000EFF9402811DC98F8043013F0800F10D019
:1024500033780133282B28BF00231AF80320D2B287
:1024600088F80720DBB2337003E0FF2801DDFFF7B7
:10247000F1F83378DBB29D42E1D017F8013B0AF85E
:1024800004300122084B1A70E4B289F800405F451D
:10249000C8D1BC22054BDA70BDE8F88F3480044007
:1024A000D493FF1FD193FF1F6493FF1F00B006401A
:1024B000D893FF1F6893FF1F10B5064B1B7813F0CE
:1024C000FF0F06D0034CFFF7C5F8237813F0FF0F7A
:1024D000F9D110BD6493FF1F064B1B78DBB2064A8F
:1024E0001278D2B293422CBF273202F1FF32D01AB7
:1024F000704700BFD893FF1FD193FF1F054B18787B
:10250000C0B2054B1B78DBB2984238BF4030C01ACE
:10251000704700BFD093FF1F6593FF1F10B4184B87
:102520001A78D2B2174B1B78DBB29A4218D001331B
:102530003F2B18D81449C85CC0B2DCB211490C70EA
:1025400012490968C9B19A4203D300E00023D31AA3
:1025500001E04032D31A1A2B0FDC00230B700CE081
:102560004FF0FF3009E0084B1878C0B20021054B4E
:102570001970064B19680029E8D15DF8044B7047C3
:10258000D093FF1F6593FF1F9093FF1F6093FF1F62
:10259000094B1A78D2B2094B1B78DBB29A4207D0AA
:1025A0000133402B28BF0023054AD05CC0B27047DE
:1025B0004FF0FF30704700BFD093FF1F6593FF1FA0
:1025C0009093FF1F0D4B1B6813F4006F14D00C4B3E
:1025D000DA7802F0CB02DA7040225A74DA7842F0EC
:1025E0003402DA70074B1A78D2B2074B1A70074BD5
:1025F0001B680BB100221A70704700BF3480044082
:1026000000B006406593FF1FD093FF1F6093FF1F2C
:1026100070B43D4B1B7913F0300F33D072B63A4B88
:102620009B7D03F0FF022BB9374BDA7940225A74B5
:1026300062B627E062B6354B1978C9B2344B1C78C4
:10264000E4B2314D334EEB79D8B24B1C402B28BF4E
:102650000023A3421CBFF0541946531E13F0FF027F
:10266000F1D1CAB2294B1A702B4B1B6853B1A1424E
:102670002EBFC4EB0101C4F1400409192729C4BFCE
:1026800001221A70204BDA78D2B212F0800F27D0D4
:102690001B7913F0800F23D0204B1C78E4B2204B21
:1026A0001B78DBB29C4210D017491E4D01E0A342BB
:1026B0000BD00133282B28BF00230879E85CC0B277
:1026C000C871087DC0B20728F1D9DBB214490B707C
:1026D0000D4B1B7913F0800F02D07C210A4BD9706F
:1026E00012F0400F0ED0084B1B7913F0400F09D0A9
:1026F00000220D4B1A700D4B1B6803B11A703C225F
:10270000014BDA7070BC704700B00640D093FF1FD9
:102710006593FF1F9093FF1F6093FF1FD893FF1FC8
:10272000D193FF1F6893FF1F6493FF1FD493FF1F74
:10273000174B1A6842F480521A600023154A13702E
:10274000154A1370154A1370154A1370154A137001
:1027500040F21331144A11604FF451710432116088
:10276000C0F34431114A1170C0F34711517000F0A9
:102770001F009072937013742C23D37040220C4B63
:102780001A704FF40032A3F22D331A60704700BF65
:10279000348004404C94FF1FE193FF1F5494FF1FAB
:1027A0004D94FF1FE093FF1F08C0044000C0064087
:1027B00031E400E0164B9B7803F0EC0300F00302D9
:1027C000134310F0040F18BF43F01003104A937026
:1027D00000F00F03042B04D11346927942F040021B
:1027E0009A710B4B5A7902F0EF0210F0100F18BFDC
:1027F00042F01002064B5A719B7903F0EF0310F080
:10280000200F18BF43F01003014A9371704700BFB7
:1028100000C0064010B5144B1B6813F4805F21D034
:10282000124B1B7813F0FF0F06D0104CFEF712FF6F
:10283000237813F0FF0FF9D14FF400320C4B1A60DC
:1028400000230C4AD37040F203120B490A60043192
:102850000A600A4A13700A4A13700A4B1B680BB1CC
:1028600001221A7010BD00BF34800440E093FF1FA6
:1028700084E100E000C0064008C004404C94FF1F03
:10288000E193FF1FDC93FF1F10B50446094A13783C
:1028900013F0FF0FFBD120460121FDF75FFE20461C
:1028A0000021FDF737FE044B53F83420034B1A6028
:1028B00010BD00BFE093FF1F803A00005094FF1F3F
:1028C00010B40C4609B140F08000104B1B789842C0
:1028D00019D00F4A126812F4805F12D003F07F0300
:1028E000082B02D100220B4B1A60002C0CBF442293
:1028F000602200F07F03082B03D142F44072054BA5
:102900001A60024B18705DF8044B7047FF87FF1F79
:10291000348004400CC00440704700BF10B50D4B1C
:102920001B6813F4805F12D021280CD80A4C0B4B83
:1029300053F8303023600121FDF710FE2368002298
:102940001A70012010BD0020034B186010BD00203C
:1029500010BD00BF34800440DC93FF1F803A0000AC
:102960000D4B1B6813F4805F13D00E280AD140F280
:1029700002320A4B1A600A4B5A7B42F001025A7328
:1029800001207047064B5A7B02F0FE025A7300206A
:1029900070470020704700BF3480044004C00440EA
:1029A00000C006402DE9F04107461F4B1B6813F499
:1029B000805F37D01D4B1B680BB101221A701C4B76
:1029C0001C780134282C28BF00241A4D1A4EDFF839
:1029D0006C8017E0FEF724FF40280FDC337913F0FA
:1029E000800F0FD02B780133282B28BF002318F835
:1029F0000320D2B2F271DBB22B7003E0FF2801DDBD
:102A0000FEF728FE2B78DBB29C42E3D0FFB20B4BE3
:102A10001F5501220A4B1A70E4B2054B1C70AC2200
:102A2000054BDA70BDE8F081348004405094FF1FFC
:102A30005494FF1F4D94FF1F00C00640E493FF1FF6
:102A4000E093FF1F38B505460C4629B115F8010B78
:102A5000FFF7A8FF013CF9D138BD00BF10B5064B08
:102A60001B7813F0FF0F06D0034CFEF7F3FD23781D
:102A700013F0FF0FF9D110BDE093FF1F064B1B7839
:102A8000DBB2064A1278D2B293422CBF273202F14F
:102A9000FF32D01A704700BF5494FF1F4D94FF1FA0
:102AA000054B1878C0B2054B1B78DBB2984238BF93
:102AB0004030C01A704700BF4C94FF1FE193FF1FC6
:102AC00010B4184B1A78D2B2174B1B78DBB29A426B
:102AD00018D001333F2B18D81449C85CC0B2DCB2FF
:102AE00011490C7012490968C9B19A4203D300E038
:102AF0000023D31A01E04032D31A1A2B0FDC002333
:102B00000B700CE04FF0FF3009E0084B1878C0B2B2
:102B10000021054B1970064B19680029E8D15DF8B2
:102B2000044B70474C94FF1FE193FF1F0C94FF1F51
:102B3000DC93FF1F094B1A78D2B2094B1B78DBB22A
:102B40009A4207D00133402B28BF0023054AD05CAE
:102B5000C0B270474FF0FF30704700BF4C94FF1F6A
:102B6000E193FF1F0C94FF1F054B1A78D2B2054B5F
:102B70001A70054B1B680BB100221A70704700BF1A
:102B8000E193FF1F4C94FF1FDC93FF1F2F4B1B791A
:102B900013F0200F23D02D4BDB79D9B22C4B1B78AF
:102BA0000133402B28BF00232A4A1278D2B29A421E
:102BB00004D0294AD154D9B2254A1170274A116844
:102BC00069B1274A1278D2B293422EBFC2EB0303F7
:102BD000C2F140029B18272BC4BF01230B701B4B73
:102BE000DB78DBB213F0800F1CD0184A127912F098
:102BF000800F17D01B4A1178C9B2194A1278D2B285
:102C0000914203D16C21114AD1700BE00132282A84
:102C100028BF00221449885CC0B20C49C871D2B2E6
:102C20000F490A7013F0400F0ED0084B1B7913F0B8
:102C3000400F09D000220D4B1A700D4B1B6803B1D9
:102C40001A702C22014BDA70704700BF00C006409A
:102C50004C94FF1FE193FF1F0C94FF1FDC93FF1F99
:102C60004D94FF1F5494FF1FE493FF1FE093FF1F39
:102C70005094FF1F00B585B072B61B4B70221A70BE
:102C800041211A4A11700F21013A117080221A70E5
:102C90001A46137813F0800FFBD0154B186862B6F4
:102CA000144B98429CBF00EB8000400001A90A220F
:102CB000FEF7D6FD9DF804307BB908E001A9595C08
:102CC00031B19180023201330A2BF7D100E00023A9
:102CD00001335B00084A137003E0074A5380012365
:102CE000ECE705B05DF804FB00000240070002407D
:102CF000080002407F9698002C89FF1F08B50368E2
:102D00001B68C9B2984708BD08B503681B68C9B2FB
:102D1000984708BD08B503681B68C9B2984708BD45
:102D200008B503681B68C9B2984708BD08B54B08C9
:102D300003F1376000F5D830B0FBF1F0FEF7B2FDDB
:102D400008BD00BF10B514464B0803F1376000F50D
:102D5000D830B0FBF1F0FEF7A5FD2046FEF70AFEE5
:102D600010BD00BF08B5FEF735FE08BD08B5084622
:102D7000FEF76AFE08BD00BF08B50846FEF7BEFEB6
:102D800008BD00BF08B508461146FEF779FE08BD2C
:102D900008B50846FEF7DEFE003018BF012008BD6A
:102DA00008B50846FEF7F8FE003018BF012008BD40
:102DB00008B5FEF7F1FF08BD08B5FFF737F808BD05
:102DC00008B5FEF7F9FF08BD08B5FEF7C3FF08BD5B
:102DD00008B5FFF745F808BD08B5FEF7CBFF08BDFD
:102DE00008B50846FEF704FF012008BD08B50846EF
:102DF000FEF7FEFE012008BD10B514460846114638
:102E0000FEF746FF204610BD38B50D46084600F0D7
:102E10003DFC044628462146FEF73AFF204638BDD1
:102E2000704700BF044B00221A714FF47A71996009
:102E30001A73024A1A6070475894FF1FD03C000072
:102E400008B503681B68C9B2984708BD08B5036890
:102E50001B68C9B2984708BD08B503681B68C9B2AA
:102E6000984708BD08B503681B68C9B2984708BDF4
:102E700008B54B0803F1376000F5D830B0FBF1F02E
:102E8000FFF7A4F808BD00BF10B514464B0803F1C6
:102E9000376000F5D830B0FBF1F0FFF797F8204627
:102EA000FFF7FCF810BD00BF08B5FFF727F908BD14
:102EB00008B50846FFF782F908BD00BF08B5084607
:102EC000FFF7D6F908BD00BF08B508461146FFF761
:102ED00091F908BD08B50846FFF7F8F9003018BFAA
:102EE000012008BD08B50846FFF712FA003018BFE8
:102EF000012008BD08B5FFF701FB08BD08B5FFF7C5
:102F000047FB08BD08B5FFF709FB08BD08B5FFF78B
:102F1000D3FA08BD08B5FFF755FB08BD08B5FFF7A4
:102F2000DBFA08BD08B50846FFF714FA012008BD12
:102F300008B50846FFF70EFA012008BD10B5144683
:102F400008461146FFF756FA204610BD38B50D4623
:102F5000084600F09BFB044628462146FFF74AFA44
:102F6000204638BD704700BF044B00221A714FF451
:102F70007A7199601A73024A1A6070476894FF1F49
:102F8000303D000008B503681B68C9B2984708BD0A
:102F900008B503681B68C9B2984708BD08B503683F
:102FA0001B68C9B2984708BD08B503681B68C9B259
:102FB000984708BD08B54B0803F1B76000F55840C5
:102FC000B0FBF1F0FFF7B4FB08BD00BF10B514462D
:102FD0004B0803F1B76000F55840B0FBF1F0FFF784
:102FE000A7FB2046FFF7E6FB10BD00BF08B5FFF7C3
:102FF00011FC08BD08B50846FFF746FC08BD00BF38
:1030000008B50846FFF788FC08BD00BF08B50846AC
:103010001146FFF755FC08BD08B50846FFF77EFCD2
:10302000003018BF012008BD08B50846FFF798FC1E
:10303000003018BF012008BD08B5FFF731FD08BDFD
:1030400008B5FFF777FD08BD08B5FFF739FD08BDE6
:1030500008B5FFF703FD08BD08B5FFF785FD08BDFE
:1030600008B5FFF70BFD08BD08B50846FFF79AFC49
:10307000012008BD08B50846FFF794FC012008BDF3
:1030800010B5144608461146FFF7DCFC204610BD7B
:1030900038B50D46084600F0F9FA044628462146A0
:1030A000FFF7D0FC204638BD704700BF044B00221C
:1030B0001A714FF47A7199601A73024A1A60704754
:1030C0007894FF1F903D000070B50F4E0F4D761B9A
:1030D000B61007D0043D0024013455F8043F98474A
:1030E000A642F9D10A4E0B4D761B00F081FEB610B8
:1030F00008D0043D0024013455F8043F9847A64207
:10310000F9D170BD70BD00BFFC3D0000FC3D00006A
:10311000143E0000FC3D0000024B0146186800F020
:1031200003B800BF708DFF1F2DE9F04F01F10B05B3
:10313000162D83B0064627D935F0070527D4A942B6
:1031400025D8304600F08CFAB5F5FC7F26D2C14F69
:103150004FEAD50C07EBCC03DC689C4200F0D2812F
:103160006368E268A16823F00303234430465D6886
:10317000CA6045F0010591605D6000F073FA0834A3
:10318000204603B0BDE8F08F1025A942D9D900240C
:103190000C232046336003B0BDE8F08F5FEA552C66
:1031A00000F08A80BCF1040F00F260814FEA951CA8
:1031B0000CF1380C4FEA4C01A64F07EB8101CC68AB
:1031C000A14205D10CE0002B7ADAE468A14207D0D5
:1031D000626822F00302531B0F2BF4DD0CF1FF3C5D
:1031E0000CF1010C9B4B3C6903F1080E744500F097
:1031F0007E81616821F003014A1B0F2A00F364817C
:10320000002AC3F814E0C3F810E06ADAB1F5007FD1
:1032100080F03A81C90803EBC1004FEAA1085A685F
:103220008168A1604FF0010909FA08F848EA020232
:10323000E0605A608460CC604FEAAC0301209840A3
:1032400090425BD8024206D12CF0030C40000242AF
:103250000CF1040CFAD007EBCC084446E146E368D5
:103260009C4207D145E1002A80F25681DB689C42EE
:1032700000F03F81596821F003014A1B0F2AF2DD5B
:103280001C46D3F80CC054F8088F591945F00109B1
:1032900042F00105C3F804903046C8F80CC0CCF8E1
:1032A000088079613961C1F80CE0C1F808E04D602F
:1032B0008A5000F0D7F963E77E214FF03F0C7BE79F
:1032C0002244E3685068A16840F00105CB603046B5
:1032D0009960556000F0C6F90834204603B0BDE897
:1032E000F08F214430464B6843F001034B6000F0FF
:1032F000B9F90834204603B0BDE8F08FBC686368B4
:1033000023F00309A94504D3C5EB09030F2B00F3F0
:103310009180514B514A19681368013305EB010A3A
:1033200004EB090B00F061810AF5805A0AF10F0ADB
:103330002AF47F6A2AF00F0A30465146019200F0C3
:1033400093F9B0F1FF3F8046019A00F00081834578
:1033500000F2FA80DFF810C1DCF80030C3455344B6
:10336000CCF8003000F04A8112683C4901321BBFA2
:10337000CBEB080B5B44C1F80080CCF8003018F0B0
:10338000070300F01381C3F10802C3F58053904492
:103390000833C244CAF30B0ACAEB030A514630464B
:1033A000CDF804C000F060F9431CDDF804C000F063
:1033B0003581C8EB0002524442F00102DCF80030D3
:1033C000C7F808805344BC42C8F80420CCF8003049
:1033D000DFF894A015D0B9F10F0F40F2EA806168D0
:1033E000A9F10C0222F0070201F0010EA11805203C
:1033F00042EA0E0E0F2AC4F804E04860886000F22A
:103400001181174ABC6811688B4288BF1360154A46
:1034100011688B4288BF1360626822F003029542F4
:10342000C5EB020301D80F2B04DC304600F01AF97B
:103430000024A5E6621943F0010345F0010565602B
:103440003046BA60536000F00DF90834204603B0EE
:10345000BDE8F08F748DFF1F9094FF1F8091FF1FB8
:103460008C94FF1F8894FF1F9494FF1FBCF1140FCE
:1034700061D9BCF1540F00F28F804FEA153C0CF17A
:103480006E0C4FEA4C0197E64B0A042B58D9142BCB
:1034900000F2AE8003F15B02500007EB8000DFF822
:1034A000BC818368834200F08A805A6822F003025C
:1034B000914202D29B689842F7D1D9687A68E1605C
:1034C000A3608C60DC60B7E6611942F0010745F04B
:1034D00001056560304659611961C1F80CE0C1F819
:1034E00008E04F608A50083400F0BCF848E65A689B
:1034F000A2E609F1010919F0030F04F108047FF4B1
:10350000AEAE2DE004F108036469A34208BF0CF1DC
:10351000020C3FF467AE23E619441C464868DB689A
:1035200054F8082F40F001054D603046D3609A6092
:1035300000F098F824E60CF15B0C4FEA4C013BE6F6
:103540008A0938325000A8E7BC423FF403AFBC6898
:10355000626822F0030262E7D8F8008098457BD1C8
:103560001CF0030FA8F108030CF1FF3CF4D17B68B9
:1035700023EA00037B60400098423FF6BFAE00287C
:103580003FF4BCAE0342CC467FF465AE400003423C
:103590000CF1040CFAD05EE6BCF5AA7F1AD84FEA0B
:1035A000D53C0CF1770C4FEA4C0105E64FF4805303
:1035B000EFE60123C8F80430444600222FE79110BB
:1035C0000120D8F8042000FA01F10A43C8F80420C9
:1035D000194674E740F254539C451BD84FEA954C6A
:1035E0000CF17C0C4FEA4C01E6E50AF1100AA3E667
:1035F000542B1FD80A0B6E3250004EE7CBF30B0151
:1036000000297FF4B1AE0AEB0901BA6841F001016B
:103610005160F6E6FC214FF07E0CCDE501224FF023
:10362000000ACBE604F10801304600F0D5F8DAF8DC
:103630000030E6E6B3F5AA7F03D8CA0B7732500014
:103640002BE740F25452934203D88A0C7C3250004C
:1036500023E7FC207E2220E77B688CE7748DFF1F28
:10366000704700BF704700BF38B5074C00230546C0
:1036700008462360FEF7CCF8431C00D038BD236811
:10368000002BFBD02B6038BDC494FF1F20F003013A
:1036900010F00300C0F1000051F8043B00F1040CED
:1036A0004FEACC0C6FF000021CBF22FA0CF213435D
:1036B0004FF0010C4CEA0C2C4CEA0C4CA3EB0C0226
:1036C00022EA030212EACC1204BF51F8043B043090
:1036D000F4D013F0FF0F1FBF013013F47F4F013000
:1036E00013F47F0F18BF0130704700BF024B13B1B6
:1036F000024800F005B87047000000000D370000D8
:10370000014600200246034600F034B938B5094DA1
:10371000094C641BA41018BF05EB840505D0013CBF
:1037200055F8043D9847002CF9D1BDE8384000F029
:1037300071BB00BF0000000000000000F8B5234D81
:103740000F460446FFF78CFFAB685E6826F0030661
:10375000F11B01F6EF7121F47F6121F00F01A1F55A
:103760008057B7F5805F07DB20460021FFF77CFF1D
:10377000AB683344984204D02046FFF773FF002023
:10378000F8BD20467942FFF76FFF01300DD0104B96
:10379000AA681968F61B46F001062046C91B566048
:1037A0001960FFF75FFF0120F8BD20460021FFF7F9
:1037B0005BFFAB68C21A0F2ADEDD064D04492D6897
:1037C00042F00102401B5A600860D5E7748DFF1F6C
:1037D0009494FF1F8091FF1F2DE9F0410D4606468E
:1037E000002955D0FFF73CFF55F8041CDFF874C1E1
:1037F00021F00103A5F10804E218DCF8080057687D
:10380000904227F0030769D011F00101576032D0D0
:103810000021D0194068C00706D43B4490680029B5
:103820004ED0D268C260906043F001026260E35003
:10383000E1B9B3F5007F2DD35A0A042A6AD8980952
:10384000383041000CEB810C4649DCF80820624519
:1038500066D0516821F003018B4202D292689445F0
:10386000F7D1D368E360A2609C60D4603046BDE8C5
:10387000F041FFF7F7BE55F8085C641B0CF108082F
:10388000A06840452B4443D0E568C560A860C0E708
:10389000BDE8F081DB080CEBC3020125DCF8040075
:1038A0009168A1609B1005FA03F31843E260CCF81D
:1038B000040094603046CC60BDE8F041FFF7D2BE12
:1038C000294DA842ADD143F00102CCF81440CCF808
:1038D0001040E060A0606260E350C7E71F44CB0780
:1038E00007D455F8083CE41A1F44A268E368D36083
:1038F0009A601E4B1B6847F001029F426260CCF841
:103900000840B3D31A4B30461968FFF717FFADE7ED
:1039100001217EE7142A0CD802F15B00410091E7F7
:103920004B688010012505FA00F003434B601346F5
:1039300098E7542A03D8180B6E30410082E7B2F59D
:10394000AA7F03D8D80B773041007BE740F254516F
:103950008A4203D8980C7C30410073E7FC217E201A
:1039600070E700BF748DFF1F7C8DFF1F7C91FF1FD0
:103970009094FF1FF0B5274C2668D6F8484185B0D3
:103980000746002C41D065681F2D1EDD224818B95E
:103990004FF0FF3005B0F0BD4FF4C87003910292B4
:1039A0000193FFF7B9FB0399029A019B0446002893
:1039B000EED0D6F848512560002060600546C6F874
:1039C0004841C4F88801C4F88C013FB9AB1C002001
:1039D0000135656044F8231005B0F0BD04EB8500A7
:1039E0004FF0010CC0F88820D4F888610CFA05F279
:1039F0001643022FC4F88861C0F80831E6D1D4F824
:103A00008C311A43C4F88C21E0E706F5A674C6F899
:103A10004841B8E7EC3D0000193100006563686F6C
:103A2000202254686520666C6167206973204249D2
:103A3000544354467B4234645F6261645F5535424F
:103A40007D2200006563686F202254686973206DD1
:103A50006573736167652077696C6C2073656C664C
:103A600020646573747275637420696E20352073E9
:103A700065636F6E64732200726D202D72202F00BB
:103A80004008FE4340A004404408FE4344A00440D4
:103A90000018FE4300C004403000FE433090044054
:103AA0003400FE43349004401C18FE431CC0044004
:103AB0001018FE4310C004400818FE4308C004401C
:103AC0000C18FE430CC004400C10FE430CB0044024
:103AD0001010FE4310B004401810FE4318B004400C
:103AE0001C10FE431CB004401410FE4314B00440EC
:103AF0000418FE4304C004400010FE4300B004401C
:103B00000008FE4300A004400408FE4304A0044053
:103B10000C08FE430CA004400808FE4308A0044023
:103B20001418FE4314C004401818FE4318C0044083
:103B30000410FE4304B004400810FE4308B00440E3
:103B40001400FE43149004404C08FE434CA0044073
:103B50000420FE4304D004402410FE4324B004405B
:103B60002010FE4320B004402810FE4328B004403B
:103B70002C10FE432CB004400020FE4300D0044033
:103B80004808FE4348A004401000FE431090044043
:103B90000D0A0000FFFFFFFF000000000000000012
:103BA000011600000D160000E1150000E9150000E7
:103BB000F1150000F91500000000000000000000F1
:103BC00019160000891500002C5E7460616264346F
:103BD0006667656E362D3738271E1F202122232465
:103BE00025267333762E77785F4445464748494A01
:103BF0004B4C4D4E4F505152535455565758595A9D
:103C00005B5C5D2F3130636D350405060708090ADA
:103C10000B0C0D0E0F101112131415161718191A7C
:103C20001B1C1D6F7170752A1519151500010000F8
:103C30004088FF1F12000000000200006C88FF1F78
:103C40005B00000000220100C888FF1F2100000067
:103C5000002101009788FF1F0900000000220000DA
:103C60000088FF1F3F000000002100007E88FF1F2A
:103C70000900000000220200EC88FF1F280000005D
:103C800000210200B788FF1F0900000000030000A8
:103C90002889FF1F00000000010309045488FF1F4A
:103CA00000000000020309041489FF1F0000000047
:103CB000030309042C89FF1F00000000000000001E
:103CC00000000000000000000000000000000000F4
:103CD000E12D0000F92D0000B12D0000C12D0000E4
:103CE000B92D0000C92D00002D2D0000452D00002C
:103CF000652D00006D2D0000792D0000852D000040
:103D0000912D0000A12D0000D12D0000D92D000023
:103D1000FD2C0000092D0000152D0000212D0000B4
:103D2000092E0000ED2D0000000000000000000042
:103D3000252F00003D2F0000F52E0000052F00006C
:103D4000FD2E00000D2F0000712E0000892E0000B6
:103D5000A92E0000B12E0000BD2E0000C92E0000CB
:103D6000D52E0000E52E0000152F00001D2F0000AD
:103D7000412E00004D2E0000592E0000652E00003F
:103D80004D2F0000312F0000000000000000000057
:103D900069300000813000003930000049300000F7
:103DA0004130000051300000B52F0000CD2F000041
:103DB000ED2F0000F52F0000013000000D30000055
:103DC0001930000029300000593000006130000037
:103DD000852F0000912F00009D2F0000A92F0000CB
:103DE0009130000075300000430000004889FF1F3B
:103DF000F8B500BFF8BC08BC9E467047ED36000021
:103E00003504000029160000252E0000692F00004F
:043E1000AD300000D1
:043E1400F8B500BF3E
:103E1800FFFFFFFF0A040000C894FF1F01090A08FA
:103E280005010906A10175019508050719E029E7AB
:103E38001500250181029501750881039505750115
:103E48000508190129059102950175039103950645
:103E580075081500257F05071900297F8100C00016
:103E68001201010100000040C01682040002010294
:103E78000301000018035400650065006E0073001C
:103E880079006400750069006E006F0009025B002C
:103E9800030100C0320904000001030101000921E7
:103EA80011010001223F00070583030800010904EE
:103EB8000100020300000009211101000122210074
:103EC80007058103400001070502032000020904D9
:103ED800020001030000000921110100012228004D
:103EE800070584030800040006C9FF0904A15C75DE
:103EF80008150026FF00954009758102952009766E
:103F0800910295040976B102C0000000050C090170
:103F1800A101750A950419002A9C021500269C0225
:103F28008100050175089503190029B7150026B702
:103F3800008100C012034B006500790062006F0029
:103F48006100720064000000040309040C0300000F
:103F58000000000000000000000000000000000059
:103F6800000000000000000000000000348CFF1F6B
:103F78009C8CFF1F048DFF1F000000000000000044
:103F88000000000000000000000000000000000029
:103F9800000000000000000000000000E83D0000F4
:103FA8000000000000000000000000000000000009
:103FB80000000000000000000000000000000000F9
:103FC80000000000000000000000000000000000E9
:103FD80000000000000000000000000000000000D9
:103FE80000000000000000000000000000000000C9
:103FF80000000000000000000000000000000000B9
:1040080000000000000000000000000000000000A8
:1040180001000000000000000E33CDAB34126DE645
:10402800ECDE05000B0000000000000000000000AE
:104038000000000000000000000000000000000078
:104048000000000000000000000000000000000068
:104058000000000000000000000000000000000058
:104068000000000000000000000000000000000048
:104398004889FF1F0000000000000000748DFF1F07
:1043A800748DFF1F7C8DFF1F7C8DFF1F848DFF1F69
:1043B800848DFF1F8C8DFF1F8C8DFF1F948DFF1F19
:1043C800948DFF1F9C8DFF1F9C8DFF1FA48DFF1FC9
:1043D800A48DFF1FAC8DFF1FAC8DFF1FB48DFF1F79
:1043E800B48DFF1FBC8DFF1FBC8DFF1FC48DFF1F29
:1043F800C48DFF1FCC8DFF1FCC8DFF1FD48DFF1FD9
:10440800D48DFF1FDC8DFF1FDC8DFF1FE48DFF1F88
:10441800E48DFF1FEC8DFF1FEC8DFF1FF48DFF1F38
:10442800F48DFF1FFC8DFF1FFC8DFF1F048EFF1FE7
:10443800048EFF1F0C8EFF1F0C8EFF1F148EFF1F94
:10444800148EFF1F1C8EFF1F1C8EFF1F248EFF1F44
:10445800248EFF1F2C8EFF1F2C8EFF1F348EFF1FF4
:10446800348EFF1F3C8EFF1F3C8EFF1F448EFF1FA4
:10447800448EFF1F4C8EFF1F4C8EFF1F548EFF1F54
:10448800548EFF1F5C8EFF1F5C8EFF1F648EFF1F04
:10449800648EFF1F6C8EFF1F6C8EFF1F748EFF1FB4
:1044A800748EFF1F7C8EFF1F7C8EFF1F848EFF1F64
:1044B800848EFF1F8C8EFF1F8C8EFF1F948EFF1F14
:1044C800948EFF1F9C8EFF1F9C8EFF1FA48EFF1FC4
:1044D800A48EFF1FAC8EFF1FAC8EFF1FB48EFF1F74
:1044E800B48EFF1FBC8EFF1FBC8EFF1FC48EFF1F24
:1044F800C48EFF1FCC8EFF1FCC8EFF1FD48EFF1FD4
:10450800D48EFF1FDC8EFF1FDC8EFF1FE48EFF1F83
:10451800E48EFF1FEC8EFF1FEC8EFF1FF48EFF1F33
:10452800F48EFF1FFC8EFF1FFC8EFF1F048FFF1FE2
:10453800048FFF1F0C8FFF1F0C8FFF1F148FFF1F8F
:10454800148FFF1F1C8FFF1F1C8FFF1F248FFF1F3F
:10455800248FFF1F2C8FFF1F2C8FFF1F348FFF1FEF
:10456800348FFF1F3C8FFF1F3C8FFF1F448FFF1F9F
:10457800448FFF1F4C8FFF1F4C8FFF1F548FFF1F4F
:10458800548FFF1F5C8FFF1F5C8FFF1F648FFF1FFF
:10459800648FFF1F6C8FFF1F6C8FFF1F748FFF1FAF
:1045A800748FFF1F7C8FFF1F7C8FFF1F848FFF1F5F
:1045B800848FFF1F8C8FFF1F8C8FFF1F948FFF1F0F
:1045C800948FFF1F9C8FFF1F9C8FFF1FA48FFF1FBF
:1045D800A48FFF1FAC8FFF1FAC8FFF1FB48FFF1F6F
:1045E800B48FFF1FBC8FFF1FBC8FFF1FC48FFF1F1F
:1045F800C48FFF1FCC8FFF1FCC8FFF1FD48FFF1FCF
:10460800D48FFF1FDC8FFF1FDC8FFF1FE48FFF1F7E
:10461800E48FFF1FEC8FFF1FEC8FFF1FF48FFF1F2E
:10462800F48FFF1FFC8FFF1FFC8FFF1F0490FF1FDD
:104638000490FF1F0C90FF1F0C90FF1F1490FF1F8A
:104648001490FF1F1C90FF1F1C90FF1F2490FF1F3A
:104658002490FF1F2C90FF1F2C90FF1F3490FF1FEA
:104668003490FF1F3C90FF1F3C90FF1F4490FF1F9A
:104678004490FF1F4C90FF1F4C90FF1F5490FF1F4A
:104688005490FF1F5C90FF1F5C90FF1F6490FF1FFA
:104698006490FF1F6C90FF1F6C90FF1F7490FF1FAA
:1046A8007490FF1F7C90FF1F7C90FF1F8490FF1F5A
:1046B8008490FF1F8C90FF1F8C90FF1F9490FF1F0A
:1046C8009490FF1F9C90FF1F9C90FF1FA490FF1FBA
:1046D800A490FF1FAC90FF1FAC90FF1FB490FF1F6A
:1046E800B490FF1FBC90FF1FBC90FF1FC490FF1F1A
:1046F800C490FF1FCC90FF1FCC90FF1FD490FF1FCA
:10470800D490FF1FDC90FF1FDC90FF1FE490FF1F79
:10471800E490FF1FEC90FF1FEC90FF1FF490FF1F29
:10472800F490FF1FFC90FF1FFC90FF1F0491FF1FD8
:104738000491FF1F0C91FF1F0C91FF1F1491FF1F85
:104748001491FF1F1C91FF1F1C91FF1F2491FF1F35
:104758002491FF1F2C91FF1F2C91FF1F3491FF1FE5
:104768003491FF1F3C91FF1F3C91FF1F4491FF1F95
:104778004491FF1F4C91FF1F4C91FF1F5491FF1F45
:104788005491FF1F5C91FF1F5C91FF1F6491FF1FF5
:104798006491FF1F6C91FF1F6C91FF1F00000200C6
:0447A800FFFFFFFF11
:00000001FF
